:020000040800F2
:10000000680C00209D01000895120008350B0008BF
:10001000B911000841070008AB1E000800000000ED
:100020000000000000000000000000007114000843
:10003000450700080000000025130008A916000865
:10004000B7010008B7010008B7010008B7010008B0
:10005000B7010008B701000849070008B701000808
:10006000750700089D070008C5070008B7010008CC
:10007000B7010008B7010008B7010008B701000880
:10008000B7010008B7010008B7010008B701000870
:10009000B7010008B7010008B7010008B701000860
:1000A000B7010008B7010008B7010008B701000850
:1000B000B7010008B7010008B7010008B701000840
:1000C000B7010008B7010008B7010008B701000830
:1000D000B7010008A51B0008B7010008B701000818
:1000E000B7010008B7010008B7010008B701000810
:1000F000B7010008B7010008B7010008B701000800
:10010000B7010008B7010008B7010008B7010008EF
:10011000B7010008B7010008B7010008B7010008DF
:10012000B7010008B7010008B7010008B7010008CF
:10013000B7010008B7010008B7010008B7010008BF
:10014000B7010008B7010008B7010008B7010008AF
:10015000B7010008B7010008B7010008B70100089F
:10016000B7010008B7010008B7010008B70100088F
:10017000B7010008B7010008B7010008B70100087F
:10018000B7010008B7010008DFF80CD000F0A0F9B3
:1001900000480047A5220008680C00200648804758
:1001A00006480047FEE7FEE7FEE7FEE7FEE7FEE75C
:1001B000FEE7FEE7FEE7FEE7E91600088901000812
:1001C00040EA01039B0703D009E008C9121F08C0D9
:1001D000042AFAD203E011F8013B00F8013B521E59
:1001E000F9D27047034611F8012B00F8012B002AC1
:1001F000F9D1184670472DE9F04D81EA030404F067
:10020000004B21F0004514464FF0000A23F0004156
:1002100050EA050220D054EA01021DD0C5F30A5766
:100220000246C5F31303C1F31300C1F30A5640F4A9
:10023000801543F48013A7EB0608101BD64608F27E
:10024000FD3873EB050002D308F1010801E09218B4
:100250005B41B8F1000F03DA00200146BDE8F08DE4
:1002600000204FF48011064684460EE0171B73EB06
:10027000050705D3121B63EB050306434CEA010C8B
:1002800049084FEA300092185B4150EA0107EDD16E
:1002900052EA030012D082EA040083EA050108430F
:1002A00005D0101BAB4106D20122002306E000223C
:1002B0004FF0004302E06FF0010253101AEB06000A
:1002C0004CEB085110EB0A0041EB0B01BDE8F04D7F
:1002D00000F0A1B80EB540F2334102910021CDE902
:1002E00000110A460B4600F0A5F803B000BD01F06E
:1002F000004330B421F0004150EA010206D00A0D5B
:10030000A2F56072C1F31301002A02DC30BC0020A8
:100310007047440F44EAC104C100E01830BC00EB50
:10032000C25000F041B82DE9F05F0546002092462A
:100330009B4688460646814640241BE028464146A7
:100340004746224600F020F853465A46C01A9141CB
:1003500010D311461846224600F0CCF82D1A67EB50
:1003600001084F4622460120002100F0C3F817EB98
:1003700000094E41201EA4F10104DFDC484631464D
:100380002A464346BDE8F09F202A04DB203A21FAA2
:1003900002F00021704721FA02F3D040C2F120029E
:1003A00091400843194670470029A8BF7047401C78
:1003B000490008BF20F00100704710B4B0FA80FC7B
:1003C00000FA0CF050EA010404BF10BC704749B1B8
:1003D000CCF1200421FA04F411FA0CF118BF012128
:1003E00021430843A3EB0C01CB1D4FEA00614FEA08
:1003F000102042BF002010BC704700EBC3501044D7
:100400000029A4BF10BC7047401C490008BF20F061
:10041000010010BC704710B5141E73F1000408DA17
:10042000401C41F1000192185B411A4301D120F0B8
:10043000010010BD2DE9F04D92469B4611B1B1FA75
:1004400081F202E0B0FA80F22032904600F052F8D9
:1004500004460F4640EA0A0041EA0B0153465A4659
:10046000084313D0114653EA010019D0C8F14002E5
:100470005046FFF789FF05460E465046594642460C
:1004800000F038F8084305D0012004E02046394642
:10049000BDE8F08D0020054346EAE0762C43374363
:1004A0000A986305E40AA0EB08000022FD0A44EA6A
:1004B00047540A3002D500200146E9E7010510192A
:1004C0006941DDE9084500196941BDE8F04DA2E741
:1004D000064C074D06E0E06840F0010394E8070091
:1004E00098471034AC42F6D3FFF752FE64DC0308A1
:1004F00084DC0308202A04DB203A00FA02F1002001
:1005000070479140C2F1200320FA03F31943904051
:10051000704721B1826842F00102826003E0826884
:1005200022F00102826070470021084A1168084ADF
:100530001140D0E900231A4383681A43C3681A4361
:100540001143044AC2F80413704700000423014019
:10055000E030FCFF002001400146C86C80B27047CB
:100560000246002013680B400BB1012000E0002080
:100570007047000030B50246002000235068104C40
:1005800020400D790C6844EA0524204350609068AF
:100590000C4C2040D1E903542C438D682C434D79F9
:1005A00044EA450420439060D06A20F470000C7D3A
:1005B000641EE4B2234340EA0350D06230BD000021
:1005C000FFFEFFFCFDF7FFC0F0B504460D4600201E
:1005D0000021092D11DDE068A5F10A0606EB4607AA
:1005E000072606FA07F18843A5F10A0606EB460638
:1005F00003FA06F10843E0600CE0206905EB4507CB
:10060000072606FA07F1884305EB450603FA06F1CB
:1006100008432061072A0FDA606B561E06EB860737
:100620001F2606FA07F18843561E06EB860605FAD2
:1006300006F10843606322E00D2A0FDA206BD61F13
:1006400006EB86071F2606FA07F18843D61F06EB3E
:10065000860605FA06F10843206310E0E06AA2F17D
:100660000D0606EB86071F2606FA07F18843A2F15E
:100670000D0606EB860605FA06F10843E062F0BDBA
:10068000816841F0804181607047000000B58DB005
:100690000121084600F048FE0121080200F064FE36
:1006A00003208DF8300020200B9000208DF83300BF
:1006B0000BA9114800F0A4F9002007900A900990B6
:1006C0004FF48030089007A8FFF72EFF002001901C
:1006D0008DF808008DF809000390059001208DF831
:1006E000180001A90548FFF745FF01210348FFF75E
:1006F00010FF0DB000BD00000000024000200140CE
:100700001CB50121202000F00FFE01208DF804000F
:100710000002009003208DF8050000208DF80600EF
:1007200001208DF807006946044800F069F94FF48C
:100730008071024800F0CFF91CBD00000014024097
:1007400000BFFEE77047000010B5012000F054F82C
:10075000012808D10A2001F02BFD05480068012876
:1007600001D102F093F8012000F040F810BD000024
:100770000002404210B5042000F03EF8012807D1E5
:100780000A2001F015FD0448006808B902F0C2F91A
:10079000042000F02BF810BD0802424210B50820DA
:1007A00000F02AF8012807D10A2001F001FD0448D1
:1007B000006808B901F09AFD082000F017F810BD94
:1007C0000C02424210B5102000F016F8012807D1A3
:1007D0000A2001F0EDFC0448006808B902F0AEF907
:1007E000102000F003F810BD1002424201490860D9
:1007F00070470000143C014001460020034A126883
:100800000A400AB1012000E000207047143C01407A
:10081000002123498279002A3AD00A4612680368E7
:100820009A430B461A600A1D126803689A430B1D0F
:100830001A60027911440A6803681A430A60184A68
:100840000832126803689A43154B08331A601A1D60
:10085000126803689A43124B0C331A604279102ACB
:100860000ED11A1F126803681A430D4B08331A6021
:100870001A1D126803681A43094B0C331A600DE005
:100880000749427911440A6803681A430A6005E07F
:10089000027911440A6803689A430A6070470000AD
:1008A000003C014051B18200A2F1C042126842F006
:1008B00001038200A2F1C042136009E08200A2F1AC
:1008C000C0421268034B1A408300A3F1C0431A6070
:1008D00070470000FEFF0F0030B50021002200230A
:1008E0000468A400A4F1C0442168444C2140D0E92C
:1008F00001452C43C5682C4305692C4345692C43AD
:1009000085692C43C5692C43056A2C43456A2C43F1
:10091000856A2C43C56A2C43056B2C43214304682C
:10092000A400A4F1C04421608468082C0BD10468A1
:10093000A400A4F1C044246844F040050468A40065
:10094000A4F1C04425600468641CA400A4F1C04460
:10095000226802F04042446B2468456B6D6844EAAB
:100960000514456BAD6844EA0524456BAD8944EA3E
:100970000544456B2D8A44EA0554456B2D7D44EAB8
:100980000564456BAD692C4322430468641CA400D4
:10099000A4F1C0442260C46AB4F5804F24D1046835
:1009A000A400A4F1C044D4F8043103F04043846BA4
:1009B0002468856B6D6844EA0514856BAD6844EA6C
:1009C0000524856B2D8A44EA0554856B2D7D44EA08
:1009D0000564856BAD692C4323430468A400A4F12E
:1009E000C044C4F8043107E06FF070450468A40007
:1009F000A4F1C044C4F8045130BD00008000F7FFEA
:100A0000F0B50A4600210023002400BF3DE0012587
:100A100005FA01F3156805EA03049C4234D1056820
:100A20004F000326BE40B543056015794E00B54022
:100A30000668354305601579012D02D01579022D20
:100A400016D185684F000326BE40B54385605579B1
:100A50004E00B540866835438560456801268E4066
:100A6000B5434560456896798E40B6B235434560DA
:100A7000C5684F000326BE40B543C560D5794E001A
:100A8000B540C6683543C560491C1029BFD3F0BDC9
:100A9000F0B5002300244D07ED0E02FA05F3CE1049
:100AA00000F1200555F826504E07F70E0F26BE40E0
:100AB000B543CF1000F1200646F82750CE1000F1C4
:100AC000200555F8265045EA0304CE1000F1200514
:100AD00045F82640F0BD4183704701837047000010
:100AE0002DE9F04105460C46002607230122294640
:100AF0000F48FFF769FD002712E00D48FFF7C0FD22
:100B000000BF02210A48FFF72BFD0028F9D0084852
:100B1000FFF722FD0644052001F04AFB781CC7B20E
:100B2000A742EADBB6FBF4F080B2BDE8F08100003A
:100B30000020014000BFFEE71CB50121112000F09C
:100B4000F3FB00208DF804001C20009001208DF89C
:100B5000070069460748FFF753FF00208DF804009F
:100B60000120009002208DF8070069460248FFF737
:100B700047FF1CBD001002400000024070B5064651
:100B80000F484088401E83B20D480088401E82B244
:100B90000021084600F004F900240CE0002504E0E0
:100BA000304600F0D1FA681C85B205484088A8425A
:100BB000F6DC601C84B202480088A042EEDC70BD06
:100BC0001A00002010B50446134884715CB908214E
:100BD000362000F0A9FA4FF4F0700F4948804FF426
:100BE000A070088016E02821362000F09DFAB6207B
:100BF00000F094FA002000F0A1FA022000F09EFA22
:100C00003B2000F09BFA4FF4A070034948804FF45A
:100C1000F070088010BD00001A00002070B5044676
:100C20000D4616462B4622462946204600F0B8F8C7
:100C3000304600F089FA70BD2DE9FF4F84B081463F
:100C40008A460020039002900698A0EB09050798B9
:100C5000A0EB0A06CDF80490CDF800A0002D01DD30
:100C6000012705E00DB9002702E04FF0FF376D4284
:100C7000002E02DD4FF0010806E016B94FF0000823
:100C800002E04FF0FF387642B54201DD2C4600E02D
:100C900034464FF0000B21E0009A91B2019A90B2D5
:100CA00000F022F803982844039002983044029000
:100CB0000398A04205DD0398001B03900198384477
:100CC00001900298A04205DD0298001B0290009856
:100CD000404400900BF101001FFA80FB601C83452B
:100CE000DADD08B0BDE8F08F30B504460D462B467E
:100CF00022462946204600F053F80248008800F0BA
:100D000023FA30BD16000020F0B504460D46164605
:100D10001F462B46324629462046FFF78DFF3B46AD
:100D2000224629462046FFF787FF3B463246394692
:100D30002046FFF781FF3B46324629463046FFF703
:100D40007BFFF0BD2DE9F04304460D4616461F46D5
:100D5000DDF81C80B44201DCBD4201DDBDE8F0835A
:100D60003B4632462946204600F01AF8301B401C0C
:100D700084B2781B401C85B20BE0A94602E04046D5
:100D800000F0E2F9B9F10000A9F101011FFA81F9BF
:100D9000F5D1201EA4F101018CB2EED100BFDDE738
:100DA00070B504460D462A2000F0B8F92646E11732
:100DB00004EB1161C1F30F2000F0C0F9E11704EB5F
:100DC00011610912A4EB012188B200F0B7F91646AF
:100DD000D11702EB1161C1F30F2000F0AFF91646F5
:100DE000D11702EB11610912A2EB012188B200F0C8
:100DF000A5F92B2000F092F92E46E91705EB1161B9
:100E0000C1F30F2000F09AF9E91705EB11610912FF
:100E1000A5EB012188B200F091F91E46D91703EB2A
:100E20001161C1F30F2000F089F91E46D91703EBB9
:100E300011610912A3EB012188B200F07FF92C2087
:100E400000F06CF970BD00002DE9F84F80460E46A9
:100E500017461C46B3462046E31704EB5373DB10DA
:100E600021464FEAE47C04EB5C7C4FEAEC0CA4EBFB
:100E7000CC0CBCF1000F02D04FF0010C01E04FF0A0
:100E8000000C6344224604EBD27C4FEA6C0C03FB5B
:100E90000CF3DBB20093A7F12000C7B2002556E0A7
:100EA0000C2C07D107EB47002B4901EB800010F811
:100EB000059013E0102C05D1284800EB071010F81E
:100EC00005900BE0182C07D107EBC700244901EB74
:100ED000800010F8059001E0BDE8F88F4FF0000A9F
:100EE0002FE009F0800030B11E48028831464046AC
:100EF000FFF794FE07E00A9828B91B48028831469C
:100F00004046FFF78BFE4FEA49604FEA1069701CBC
:100F100086B216484088B04200DCDDE7A6EB0B0045
:100F2000A0420AD15E4608F101001FFA80F80F487E
:100F30000088404500DCCFE706E00AF1010000F040
:100F4000FF0ABAF1080FCCDB00BF681CC5B20098DD
:100F50008542A5DB00BFBFE7682B0008DC2F000837
:100F6000CC35000816000020180000201A000020D0
:100F70002DE9F84F04460F461546A346009760E05A
:100F8000002657E006EB8600C0EB86102F4911F8CB
:100F90001000297888424BD106EB8600C0EB861002
:100FA0002A4901EB400040786978884240D14FF0EF
:100FB00000083AE006EB8600C0EB8610234901EBFF
:100FC0004000801C10F808A04FF0000926E00AF04D
:100FD0008000802806D11E48028839462046FFF747
:100FE0001DFE05E01B48028839462046FFF716FE25
:100FF0004FF6FF7000EA4A0A601C84B2A4EB0B00B3
:10100000202807D15C46781C87B20098381A1D2822
:1010100000D1009F09F1010000F0FF09B9F1080FAC
:10102000D5DB08F1010000F0FF08B8F1740FC1DB57
:10103000701CC6B2142EA5DBAD1C04F1200084B2D6
:10104000A346287800289BD1BDE8F88FA872000835
:1010500016000020180000202DE9F04F8046894638
:1010600015461E46DDF824A000270024A34609EB00
:101070000600401E83B208EB0500401E82B24946BE
:101080004046FFF78DFE05FB06F04FEA400B00BF20
:10109000601C1AF800704FF6FF7000EA07271AF874
:1010A00004000743384600F04FF8A41C5C45EFDB12
:1010B000BDE8F08F2DE9F84704460D469046994665
:1010C000DDE9096704F0FF0A08EB04001FFA80F865
:1010D00009EB05001FFA80F916E0444502DB54468F
:1010E000A81985B24D4500DB14E0002000903A7845
:1010F000334629462046FFF7A7FE304606EBD0715F
:1011000004EB61018CB27F1C38787E2802DC3878D1
:101110002028E2DA00BFBDE8F88700000149088016
:10112000704700007E00006C00B503460A46184672
:10113000FFF7F4FF104600F001F800BD01490880F8
:10114000704700008000006C0112044A1180C1B297
:101150004FF0D842A2F88010704700008000006C69
:101160001CB50121202000F0DFF801208DF80400DB
:101170004002009003208DF8050000208DF8060045
:1011800001208DF8070069460A48FFF739FC4FF443
:1011900000710848FFF7A1FC4FF480600090694699
:1011A0000448FFF72DFC4FF480610248FFF795FCDF
:1011B0001CBD00000014024000BFFEE70EB5012177
:1011C000880300F0D1F80021084600F053F902210D
:1011D000042000F04FF90321042000F04BF9042112
:1011E000084600F047F906208DF8080002208DF827
:1011F000090003208DF80A0001208DF80B0002A8D9
:1012000000F04AF808208DF8080002208DF8090047
:101210008DF80A0001208DF80B0002A800F03CF8C0
:1012200009208DF8080002208DF8090001208DF8B2
:101230000A008DF80B0002A800F02EF80A208DF8A5
:10124000080002208DF8090000208DF80A00012016
:101250008DF80B0002A800F01FF80120009000207C
:101260008DF8040008208DF8050001208DF8060097
:101270006846FFF7CDFA1C20009000208DF804008E
:101280000C208DF8050001208DF806006846FFF758
:10129000BFFA0EBD7047000070B5002100230F2279
:1012A000C4781CB3174C246804F4E064C4F5E0640B
:1012B000C4F30721C1F10404E3B20A4144789C401D
:1012C000E1B28478144021430C07210E0E4C0578BE
:1012D0006155047804F01F050124AC4005786D11B8
:1012E000AD0005F1E025C5F8004109E0047804F0FF
:1012F0001F050124AC40054D0678761145F82640BF
:1013000070BD00000CED00E000E400E080E100E0D2
:1013100002490143024A1160704700000000FA05CB
:101320000CED00E07047000029B1064A1268024344
:10133000044B1A6004E0034A12688243014B1A60AE
:10134000704700003038024029B1064A1268024353
:10135000044B1A6004E0034A12688243014B1A608E
:10136000704700003838024029B1064A126802432B
:10137000044B1A6004E0034A12688243014B1A606E
:101380007047000044380240F0B5002100220024DC
:10139000022500260223324F3F6807F00C0121B1DD
:1013A000042905D0082937D105E02E4F076036E023
:1013B0002D4F076033E02A4F3F1F3F68C7F3805629
:1013C000274F3F1F3F6807F03F036EB1264FB7FB23
:1013D000F3F7DFF88CC0ACF1040CDCF800C0CCF300
:1013E000881C07FB0CF40CE01E4FB7FBF3F7DFF88B
:1013F00070C0ACF1040CDCF800C0CCF3881C07FB17
:101400000CF4174F3F1F3F68C7F301477F1C7D0057
:10141000B4FBF5F7076002E0124F076000BF00BFA2
:101420000F4F3F6807F0F0010909104F7A5C076819
:10143000D74047600A4F3F6807F4E051890A0B4FD5
:101440007A5C4768D7408760054F3F6807F4604182
:10145000490B064F7A5C4768D740C760F0BD000073
:10146000083802400024F40000127A000000002036
:101470007047000030B500228B071C0F0F2303FAC2
:1014800004F20B4B8C1053F824309343084C8D100E
:1014900044F8253023468C1053F824308C07240F51
:1014A00000FA04F42343024C8D1044F8253030BD7B
:1014B000083801400CB500200190009034480068C5
:1014C00040F480303249086000BF3148006800F4C1
:1014D000003000900198401C0190009818B90198C4
:1014E000B0F5A04FF1D12A48006800F4003010B1E7
:1014F0000120009001E0002000900098012846D1D2
:1015000023484030006840F0805021494031086055
:101510002048006840F440401E4908601C480830DC
:1015200000681B49083108600846006840F4004024
:1015300008600846006840F4A05008601648091F7B
:101540000860081F006840F08070091F086000BF35
:101550000F48006800F000700028F9D040F20570D4
:101560000E4908600A480830006820F00300084966
:10157000083108600846006840F00200086000BFBB
:1015800003480830006800F00C000828F8D10CBDB2
:10159000003802400070004008544007003C024000
:1015A00070B52DED048B0546002D56D02E480088D1
:1015B000E8B32E48B0FBF5F401202D4908602A4815
:1015C0000088FEF787FE41EC190B9FED2A0B53ECC8
:1015D000102BFEF710FE41EC180BFEF788FE00EE14
:1015E000900A00EE104AB8EE400A20EE800ABCEEE7
:1015F000C00A10EE106A304600F01CFE00201F49A1
:10160000C1F8A00218480088FEF764FE41EC190BEF
:101610009FED180B53EC102BFEF7EDFD41EC180B72
:10162000FEF765FE00EE100AF0EE000A00E00FE0A3
:1016300070EEC00A00EE104AB8EE400A20EE800AB2
:10164000BCEEC00A10EE106A304600F0F3FD08E070
:101650004FF47A7000F0EEFD03E04FF47A7000F082
:10166000E9FDBDEC048B70BD2200002020A1070025
:10167000A082424200000000000059400080424227
:10168000042808D14FF0E021096941F004014FF02E
:10169000E022116107E04FF0E021096921F0040127
:1016A0004FF0E022116170477047000010B504460A
:1016B0006FF00400FFF7E4FFE11704EB5171C1F391
:1016C000C701074A11701046007800EB4001C1EBDA
:1016D000C0104FF6FF7101EAC0000249088010BD3A
:1016E000100000201200002010B51548006840F4DA
:1016F0007000134908601348006840F00100114968
:10170000086000200F49083108600E4800680E4943
:1017100008400C4908600D48091D0860081F006852
:1017200020F48020091F0860002006490C31086061
:10173000FFF7C0FE4FF0006001498039086010BD1E
:1017400088ED00E000380240FFFFF6FE1030002474
:1017500000B59DB001210846FFF7F6FD0F20079068
:10176000002008906020099000200A900B900C90B7
:101770000D9015200090019005200290002003900C
:1017800004900590069006200E9000200F90109077
:101790001020119000201290149013901590169024
:1017A0004FF480501790002018904FF4804019900B
:1017B00000201A9007A81B90CDF870D00EA8FFF754
:1017C0008BF801210620FFF76DF81DB000BD000069
:1017D0001CB501217820FFF7A7FD01210220FFF7AA
:1017E000A3FD0C220E216248FFF752F90C220F21B3
:1017F0005F48FFF74DF90C2200215D48FFF748F9DB
:101800000C2201215A48FFF743F90C2207215948BD
:10181000FFF73EF90C2208215648FFF739F90C2250
:1018200009215448FFF734F90C220A215148FFF7E7
:101830002FF90C220B214F48FFF72AF90C221146F1
:101840004C48FFF725F90C220D214A48FFF720F9F3
:101850000C220E214748FFF71BF90C220F214548A7
:10186000FFF716F90C2208214148FFF711F90C2265
:1018700009213F48FFF70CF90C220A213C48FFF7E9
:1018800007F90C2204213A48FFF702F90C2205213E
:101890003748FFF7FDF80C2211463748FFF7F8F8F4
:1018A0000C2211463548FFF7F3F84CF233700090E4
:1018B00002208DF8040000208DF8060003208DF82A
:1018C000050001208DF8070069462948FFF798F8C0
:1018D0004FF68070009002208DF8040000208DF8F3
:1018E000060003208DF8050001208DF807006946E9
:1018F0002048FFF785F84FF48050009002208DF8C3
:10190000040000208DF8060003208DF8050001205A
:101910008DF8070069461848FFF772F84FF48050B9
:10192000009002208DF8040000208DF806000320AE
:101930008DF8050001208DF8070069460F48FFF774
:101940005FF84FF40040009001208DF80400002063
:101950008DF8060002208DF8050001208DF80700A3
:1019600069460748FFF74CF80120064908601CBD8E
:10197000000C024000100240001402400018024017
:1019800000040240BC82404210B5FFF721FFFFF780
:10199000DFFE322000F00CFCDA20FFF7BFFB7B48B3
:1019A00000887B4988804FF0D840B0F880004FF61F
:1019B000FF7101EA002076498880DB20FFF7AEFB4B
:1019C000734880884FF0D841B1F8801008437049BF
:1019D0008880084680884FF0D841B1F880100843CD
:1019E0006B498880084681886AA000F061FAE0208F
:1019F000FFF794FB0020FFF7A1FB1320FFF79EFBEE
:101A00001820FFF79BFB0420FFF798FB0F20FFF740
:101A100095FB0620FFF792FB3A20FFF78FFB56203D
:101A2000FFF78CFB4D20FFF789FB0320FFF786FBB8
:101A30000A20FFF783FB0620FFF780FB3020FFF72B
:101A40007DFB3E20FFF77AFB0F20FFF777FBE120BD
:101A5000FFF764FB0020FFF771FB1320FFF76EFB1D
:101A60001820FFF76BFB0120FFF768FB1120FFF741
:101A700065FB0620FFF762FB3820FFF75FFB342091
:101A8000FFF75CFB4D20FFF759FB0620FFF756FBE5
:101A90000D20FFF753FB0B20FFF750FB3120FFF722
:101AA0004DFB3720FFF74AFB0F20FFF747FBC02015
:101AB000FFF734FB1820FFF741FB1720FFF73EFB31
:101AC000C120FFF72BFB4120FFF738FBC520FFF7B4
:101AD00025FB0020FFF732FB1A20FFF72FFB8020A9
:101AE000FFF72CFB3620FFF719FB0820FFF726FB3A
:101AF0003A20FFF713FB5520FFF720FBB020FFF73C
:101B00000DFB0020FFF71AFBB120FFF707FBA02019
:101B1000FFF714FBB420FFF701FB0220FFF70EFBD9
:101B2000B620FFF7FBFA0020FFF708FB2220FFF7A3
:101B300005FB3B20FFF702FBE920FFF7EFFA00204F
:101B4000FFF7FCFAF720FFF7E9FAA920FFF7F6FA0A
:101B50005120FFF7F3FA2C20FFF7F0FA8220FFF76D
:101B6000EDFA1120FFF7DAFA782000F021FB2920A6
:101B7000FFF7D4FA2C20FFF7D1FA0020FFF722F864
:101B80004FF6FF70FEF7FAFF10BD00008000006CFA
:101B90001A000020204C43442049443A25780D0A7D
:101BA0000000000010B540F225511D4800F0BAF8C1
:101BB00010B31B4800F070F9C4B21A48008800F452
:101BC0000040C8B91748008800F4804060B10A2C72
:101BD00003D000201349088020E01248008840F418
:101BE00000401049088019E00D2C06D10D480088EE
:101BF00040F480400B49088010E00A480088C0F398
:101C00000D0009490C5407480088401C054908800C
:101C100008460088C72801DD0020088010BD0000AC
:101C200000100140140000205800002010B588B0BA
:101C3000044601210846FFF777FB01211020FFF73A
:101C400093FB072209212448FEF722FF07220A21DD
:101C50002148FEF71DFF4FF4C060069002208DF86A
:101C60001C008DF81D0000208DF81E0001208DF84D
:101C70001F0006A91848FEF7C3FE02940020ADF825
:101C80000C00ADF80E00ADF81000ADF814000C20FB
:101C9000ADF8120002A9114800F094F801210F4894
:101CA00000F027F840210D4800F01AF8012240F218
:101CB00025510A4800F060F825208DF80400032023
:101CC0008DF805008DF8060001208DF8070001A8A9
:101CD000FFF7E2FA08B010BD00000240001001401A
:101CE00001F40072B2F5007F00D100BFCA43028048
:101CF000704721B1828942F40052828104E08289D6
:101D00004DF6FF731A408281704702460020B1F5FC
:101D1000007F00D100BF13880B400BB1012000E011
:101D20000020704770B502460024002300250020E3
:101D300040F66A16B14200D100BFC1F3421501F06E
:101D40001F03012606FA03F3012D02D196893340C1
:101D500006E0022D02D1168A334001E0968A334014
:101D60000C12012606FA04F41688344013B10CB1A3
:101D7000012000E0002070BDF0B5034600240026DD
:101D80000025002040F66A17B94200D100BF18466E
:101D9000C1F3421401F01F06012707FA06F5012CD2
:101DA00001D10C3004E0022C01D1103000E01430DD
:101DB0001AB107682F43076002E00768AF43076066
:101DC000F0BD00002DE9FF4705460E460024A14660
:101DD00000BFA046B08900B100BF2C8A24F4405453
:101DE000F08804432C82AC8941F20C608443B088B3
:101DF00031890843718908430443AC81AC8A24F4D7
:101E00004074B0890443AC826846FFF7BDFA2048AD
:101E1000854202D01F48854202D1DDF80C9001E0D6
:101E2000DDF80890A88900F4004040B109EBC90032
:101E300000EB091031684900B0FBF1F707E009EB4E
:101E4000C90000EB091031688900B0FBF1F764208C
:101E5000B7FBF0F004012009642101FB1078A88988
:101E600000F4004040B1322000EBC800B0FBF1F0BC
:101E700000F00700044308E0322000EB0810642162
:101E8000B0FBF1F000F00F0004432C81BDE8FF87A8
:101E9000001001400014014001468888C0F308008A
:101EA0007047C1F308028280704700BFFEE7000060
:101EB0000FB4054B10B503A9044A029800F018F8B6
:101EC00010BC5DF814FB00008122000854000020C3
:101ED00002E008C8121F08C1002AFAD170477047F3
:101EE000002001E001C1121F002AFBD17047000051
:101EF0002DE9FF4F8DB09B460F460446002606E0B5
:101F000025280BD05A460F999047641C761C2078E0
:101F10000028F5D111B03046BDE8F08F0025A84665
:101F20000122984900E0054314F8013F203B02FAE2
:101F300003F00842F7D120782E2817D114F8010FAA
:101F400045F004052A280ED06FF02F022078A0F16A
:101F5000300109290AD808EB880102EB410100EBA6
:101F60000108641CF2E757F8048B641C20786C2885
:101F70000DD004DC4C2812D06A2811D104E074285A
:101F80000DD07A280CD10AE045F4001507E06178FD
:101F900045F48015814202D1641C05F58015641C4E
:101FA0002278692A45D008DC002AB3D0582A69D0A3
:101FB000632A10D0642A08D13BE0702A67D0732AC4
:101FC00013D0752A5CD0782A5CD010465A460F99F7
:101FD0009047761CD3E017F8040B8DF80000002022
:101FE0008DF80100E946012003E057F8049B4FF00B
:101FF000FF3069074FF0000501D40AE06D1C45452C
:102000000DDA8542FADB19F805100029F6D106E051
:102010006D1C8542FCDB19F805100029F8D12E440F
:1020200004E019F8010B5A460F9990476D1EF8D23B
:10203000A5E00A200021CDE90801C5F302500228DD
:102040000DD001CFC117031E71F100030DDA4FF05F
:10205000000CD0EB0C006CEB01012D2308E0FF1D00
:1020600027F00707F7E80201EDE72B0504D52B233E
:102070008DF8283001233BE0EB0739D02023F7E728
:102080000A2000E010200021CDE9080107E010201F
:10209000002145F00405CDE908014FF00808C5F31B
:1020A000025002280FD001CF00214FF0000A2B0769
:1020B0001FD5702A0DD0DDE908C38CF0100C5CEA46
:1020C000030C0CD015E0FF1D27F00707F7E802010D
:1020D000EBE740228DF828204FF0010A0BE050EA90
:1020E000010306D030238DF828308DF829200223F3
:1020F0009A46582A04D024A20DF120090B9209E037
:1021000026A2F9E7DDE90823FEF70DF90B9B9B5C9E
:1021100009F8013D50EA0102F4D1ADEB090020308D
:102120000890680701D44FF001080899884502DD3E
:10213000A8EB010000E000208046002506E00AA888
:102140005A46405D0F9990476D1C761C5545F6DB4D
:1021500004E030205A460F999047761CB8F10001F0
:10216000A8F10108F5DC05E019F8010B5A460F99B2
:102170009047761C0899481E08900029F4DC641CDE
:10218000C5E60000092801003031323334353637D6
:1021900038396162636465660000000030313233B3
:1021A0003435363738394142434445460000000053
:1021B00070B504464FF4077094FBF0F0C6B24FF4CC
:1021C000077094FBF0F100FB114085B205E04FF47D
:1021D000077000F009F8701EC6B2002EF7D115B1D5
:1021E000284600F001F870BD0146114A12884A43A2
:1021F0004FF0E0235A6100229A611A46126942F0B8
:1022000001021A6100BF4FF0E022106900F00102E4
:102210001AB100F48032002AF5D04FF0E0221269A2
:1022200022F001024FF0E0231A6100229A61704708
:10223000120000200146114A12784A434FF0E02371
:102240005A6100229A611A46126942F001021A612B
:1022500000BF4FF0E022106900F001021AB100F453
:102260008032002AF5D04FF0E022126922F00102FC
:102270004FF0E0231A6100229A617047100000209D
:1022800070B504460D46E1B20548FFF70AFE00BFEF
:1022900080210348FFF739FD0028F9D0204670BDA2
:1022A000001001402DE9F041002400250026002700
:1022B000A820FFF7FBF94FF4A060FFF729F8FEF71D
:1022C0004FFF4FF4E130FFF7B1FCFFF75DFBFEF786
:1022D00047FFFEF731FCFEF771FFFEF711FAFEF73C
:1022E000D5F900F00FF80020BDE8F081044800782F
:1022F00008B9012000E00020014908707047000083
:10230000240000201CB500F0C7FA0A274FF6FF7022
:10231000FEF734FCF8A01021CDE90010FC484388FA
:1023200002880A215020FEF7C5FEFAA00C21CDE953
:102330000010F748438802881E21C820FEF7BAFE25
:10234000F8A23C210A20FEF713FEF9A24FF4AF7168
:102350000A20FEF70DFE40F295134FF49B7240F2F7
:1023600081110A20FEF7D0FC4FF6FF704FF4CA73BC
:1023700040F235124FF4C17100900B20FEF7E2FCE1
:10238000EDA24FF4CD710A20FEF7F2FD40F2C71323
:102390004FF49B7240F2BD110A20FEF7B5FC54E2E7
:1023A000E74890F80080007888B9E6A25A216420B6
:1023B000FEF7DEFDE648BF231A468C21009041203F
:1023C000FEF74AFE4FF49670FFF7F2FE2AE0DC4873
:1023D0000078012811D1DFA25A216420FEF7C8FD40
:1023E000DF48C023BF228C2100904120FEF734FE3D
:1023F0004FF49670FFF7DCFE14E0D1480078022815
:1024000010D1D8A25A216420FEF7B2FDD848C023CB
:10241000C1228C2100904120FEF71EFE4FF49670E1
:10242000FFF7C6FED34800884FF4957148436421F6
:1024300090FBF1F00B301FFA80F94FF4FC604FF481
:10244000E3734A464FF4DF7100900B20FEF77AFCED
:102450000020C9490880E7E1B9480078404542D0EA
:10246000B748007888B9B7A25A216420FEF780FDEA
:10247000B748BF231A468C2100904120FEF7ECFD9F
:102480004FF49670FFF794FE2AE0AD4800780128DB
:1024900011D1B0A25A216420FEF76AFDB048C023D2
:1024A000BF228C2100904120FEF7D6FD4FF496709C
:1024B000FFF77EFE14E0A2480078022810D1A9A2FE
:1024C0005A216420FEF754FDA948C023C1228C2163
:1024D00000904120FEF7C0FD4FF49670FFF768FEB4
:1024E000974890F80080A448008801282ADC4FF61D
:1024F000FF704FF4CA7340F235124FF4C17100906F
:102500000B20FEF71FFC9C4800884FF49571484350
:102510008B49097840F26D2211FB02F1974A114470
:1025200091F8581290FBF1F00B301FFA80F91F2040
:102530004FF4CA734A464FF4C17100900B20FEF766
:1025400001FC1DE08C4800884FF4957148437C499C
:10255000097840F26D2211FB02F1884A114491F88A
:10256000581290FBF1F00B301FFA80F91F204FF446
:10257000CA734A464FF4C17100900B20FEF7E2FB8C
:1025800045E000207E49086001207E49C1F8A8028C
:102590000A210520FEF7A4FA04467648068800EED4
:1025A000104AB8EE400A9FED781AC0EE010A9FED7E
:1025B000770A20EE800ABCEEC00A10EE100A6D49C0
:1025C000088008460088B04221D04FF6FF704FF4D3
:1025D000E37340F235124FF4DF7100900B20FEF7E9
:1025E000B1FB644800884FF495714843642190FB27
:1025F000F1F00B301FFA80F94FF4FC604FF4E373F5
:102600004A464FF4DF7100900B20FEF79BFB6048B9
:1026100000780028B5D15A49091D086001205949A0
:10262000C1F8A4020A210520FEF75AFA04465148CF
:10263000068800EE104AF8EE400A9FED531A80EE2D
:10264000810ADFED520A20EE200ABCEEC00A10EE2D
:10265000100A484908800846028821464DA0FFF725
:1026600027FC44480188B01C814204DCB01E41496B
:102670000988884221DD4FF6FF704FF4E37340F282
:1026800035124FF4DF7100900B20FEF75BFB3948E9
:1026900000884FF495714843642190FBF1F00B30B2
:1026A0001FFA80F94FF4FC604FF4E3734A464FF48D
:1026B000DF7100900B20FEF745FB2148007840F2C7
:1026C0006D2110FB01F02D49084400F596702A4950
:1026D0000988405C00901A48007840F26D2110FB98
:1026E00001F02649084424490988435C14480278CB
:1026F000214801885CE0000053544D3332463430A9
:1027000037204D7573696320506C617965720000E4
:102710001A000020427920416D626572486561723D
:1027200074000000D5FDD4DAB2A5B7C500000000E2
:10273000BDF8B6C800000000D2F4C1BF0000000020
:1027400025000020BAECB3BEC7E9B8E800000000DD
:10275000F0BB0208BAC9CCC1D4C2C9AB00000000AA
:10276000689D0108B3C1C4ACCAC7BDF00000000039
:10277000E07B00082200002026000020200100202D
:10278000A482424200804242000080450000C842CC
:10279000240000206164635F76616C75653D25648B
:1027A0002C20766F6C756D653D25640D0A00000068
:1027B00026A0FFF77DFB002511E03049097840F2A3
:1027C0006D2211FB02F12E4A11442E4A1288895CB7
:1027D0002D4A32F81100FEF7E3FE681C85B2274847
:1027E000007840F26D2110FB01F02549084400F506
:1027F000967024490988405C2049097840F26D228E
:1028000011FB02F11E4A11441E4A1288895C1E4ABD
:1028100032F811104843B0FBF7F0A842CDD8194860
:102820000088401C174908801448007840F26D2148
:1028300010FB01F01249084490F858021149098828
:1028400088423FF709AE00F079F9A9E56375725F38
:10285000746F6E653D25642C206375725F6E756DB7
:102860003D25642C206D757369633D25642C2074AF
:10287000696D653D25640D0A0000000025000020FB
:10288000200100202600002028000020002001490F
:10289000088070472600002010B5ADF55A7D002451
:1028A0007C227649BBA8FDF78BFC7C2274499CA84E
:1028B000FDF786FC7C2273497DA8FDF781FC7C2214
:1028C00071495EA8FDF77CFCBC2270492FA8FDF77A
:1028D00077FCBC226E496846FDF772FC6DA170481A
:1028E000FDF780FC6FA17248FDF77CFC71A1744874
:1028F000FDF778FC002073490870B4E07148007857
:1029000040F26D2110FB01F06F49084400F259229A
:102910006C4801786DA0FFF7CBFA6A48007890B94F
:10292000002409E0BBA8005D674908559CA8015D2B
:102930006C480155601CC4B2792CF3D379206249EC
:1029400081F858026EE05F480078012833D17B207F
:102950005C49097840F26D2211FB02F15A4A114498
:1029600081F85802002419E07DA8005D55490978D6
:1029700040F26D2211FB02F1534A114408555EA842
:10298000015D5048007840F26D2210FB02F04E4A83
:10299000104400F596700155601CC4B24948007897
:1029A00040F26D2110FB01F04749084490F85802AD
:1029B000A042D9DC36E043480078022832D1BB205F
:1029C0004049097840F26D2211FB02F13E4A114460
:1029D00081F85802002419E02FA8005D39490978D0
:1029E00040F26D2211FB02F1374A114408551DF8DF
:1029F00004103448007840F26D2210FB02F0324A95
:102A0000104400F596700155601CC4B22D48007842
:102A100040F26D2110FB01F02B49084490F8580258
:102A2000A042D9DC2748007840F26D2210FB02F06A
:102A3000254A104490F858122BA0FFF739FA214884
:102A4000007840F26D2110FB01F01F49084400F2AC
:102A500059221C48017829A0FFF72AFA1948007862
:102A6000401C18490870174800780328FFF646AF45
:102A70000020144908700DF55A7D10BDFCD80308DC
:102A80002CDB0308B0DA030878D90308F4D903086B
:102A9000A8DB0308BAECB3BEC7E9B8E80000000041
:102AA00079030020BAC9CCC1D4C2C9AB0000000070
:102AB000E6050020B3C1C4ACCAC7BDF000000000E9
:102AC000530800202500002020010020B8E8C7FAA4
:102AD00025643A2573B3F5CABCBBAFD6D02E2E2ED3
:102AE0000D0A00004C020020B8E8C7FAB3A4B6C82B
:102AF000CEAAA3BA25640D0A00000000B8E8C7FA00
:102B000025643A2573B3F5CABCBBAFB3C9B9A621D6
:102B10000D0A00000748007818B90220054908701E
:102B200004E004480078401E024908700020024971
:102B30000880704725000020260000200848007803
:102B4000022803D100200649087004E004480078F8
:102B5000401C0349087000200249088070470000AB
:102B600025000020260000200000000000000000DA
:102B700000000000000000003F40000000000000D6
:102B800000003000400030004000000009000BC091
:102B90003D000BC03D00090018C024407FE02240EA
:102BA00031800000180024C01B000D8032400180DD
:102BB00003801C4027401C8007400040100060003C
:102BC00000000000000000000000000000001F8066
:102BD000204040200000402020401F8000000000D6
:102BE000090006001F800600090000000400040020
:102BF0003F8004000400000000100060000000009E
:102C000000000000040004000400040004000000B0
:102C1000000000400000000000000000002001C093
:102C200006003800400000001F8020402040204067
:102C30001F800000000010403FC000400000000066
:102C400018C021402240244018400000108020403D
:102C5000244024401B80000002000D0011003FC0F2
:102C6000014000003C802440244024402380000098
:102C70001F802440244034400380000030002000A6
:102C800027C03800200000001B802440244024403E
:102C90001B8000001C0022C0224022401F80000038
:102CA00000000000084000000000000000000000DC
:102CB0000460000000000000000004000A00110091
:102CC00020804040090009000900090009000000B7
:102CD00000004040208011000A000400180020007D
:102CE00023402400180000001F8020402740294076
:102CF0001F400000004007C039000F0001C0004025
:102D000020403FC0244024401B8000001F80204002
:102D1000204020403080000020403FC02040204024
:102D20001F80000020403FC024402E4030C00000E3
:102D300020403FC024402E00300000000F001080D3
:102D4000204022403380020020403FC004000400A5
:102D50003FC02040204020403FC020402040000095
:102D60000060202020203FC02000200020403FC0E5
:102D700024400B0030C0204020403FC02040004095
:102D8000004000C03FC03C0003C03C003FC000000A
:102D900020403FC00C4023003FC020001F80204047
:102DA000204020401F80000020403FC024402400DD
:102DB000180000001F802140214020E01FA00000DB
:102DC00020403FC02440260019C0004018C02440C5
:102DD0002440224031800000300020403FC020408D
:102DE0003000000020003F80004000403F80200075
:102DF00020003E0001C0070038002000380007C056
:102E00003C0007C038000000204039C0060039C02F
:102E1000204000002000384007C03840200000005B
:102E2000304021C02640384020C000000000000093
:102E30007FE0402040200000000070000C00038074
:102E4000004000000000402040207FE00000000023
:102E500000002000400020000000000000100010D2
:102E600000100010001000100000000040000000E2
:102E700000000000000002800540054003C0004043
:102E800020003FC004400440038000000000038095
:102E90000440044006400000000003800440244039
:102EA0003FC0004000000380054005400340000093
:102EB000000004401FC0244024402000000002E025
:102EC000055005500650042020403FC00440040037
:102ED00003C000400000044027C000400000000084
:102EE00000100010041027E00000000020403FC048
:102EF0000140070004C00440204020403FC0004083
:102F00000040000007C0040007C0040003C0000028
:102F1000044007C00440040003C0004000000380D8
:102F20000440044003800000041007F004500440F3
:102F300003800000000003800440045007F00010EC
:102F4000044007C0024004000400000000000640E6
:102F50000540054004C00000000004001F8004403C
:102F600000400000040007800040044007C000400B
:102F70000400070004C0018006000400060001C030
:102F8000070001C006000000044006C0010006C0A2
:102F9000044000000410071004E001800600040053
:102FA0000000044005C0064004400000000000008E
:102FB00004007BE040200000000000000000FFF063
:102FC00000000000000040207BE004000000000042
:102FD0004000800040002000200040000000000071
:102FE00000000000000000000000000000000000E1
:102FF00000001FCC000C00000000000000000800D2
:10300000300060000800300060000000022003FC77
:103010001E20022003FC1E200220000000000E18CB
:1030200011043FFF10840C78000000000F00108492
:103030000F3800C0077818840078000000780F84EB
:1030400010C411240E9800E40084000808006800F1
:103050007000000000000000000000000000000000
:10306000000007E0181820044002000000004002A1
:103070002004181807E00000000000000240024091
:1030800001800FF0018002400240000000800080BB
:1030900000800FF800800080008000000001000D1B
:1030A000000E000000000000000000000000008092
:1030B0000080008000800080008000800000000C04
:1030C000000C0000000000000000000000000006EE
:1030D000001800600180060018002000000007F0C2
:1030E000080810041004080807F000000000080495
:1030F00008041FFC000400040000000000000E0C87
:1031000010141024104411840E0C000000000C1840
:1031100010041104110412880C700000000000E07B
:103120000320042408241FFC0024000000001F9832
:10313000108411041104108810700000000007F0C2
:1031400008881104110418880070000000001C0099
:10315000100010FC13001C001000000000000E38CE
:1031600011441084108411440E3800000000070040
:10317000088C10441044088807F00000000000008C
:103180000000030C030C0000000000000000000021
:1031900000010106000000000000000000000080A7
:1031A0000140022004100808100400000220022040
:1031B0000220022002200220022000000000100451
:1031C00008080410022001400080000000000E00EA
:1031D0001200100C106C10800F00000003E00C189F
:1031E00013E4142417C4082807D000000004003C8E
:1031F00003C41C40074000E4001C000410041FFC32
:103200001104110411040E880070000003E00C1872
:1032100010041004100410081C10000010041FFCFF
:10322000100410041004080807F0000010041FFC2C
:103230001104110417C410040818000010041FFC26
:103240001104110017C010000800000003E00C1862
:103250001004100410441C780040000010041FFCEF
:1032600010840080008010841FFC100400001004F3
:1032700010041FFC100410040000000000030001F3
:10328000100110011FFE10001000000010041FFCB0
:10329000110403801464181C1004000010041FFCA7
:1032A0001004000400040004000C000010041FFCC3
:1032B0001F0000FC1F001FFC1004000010041FFC76
:1032C0000C04030000E010181FFC100007F00808B1
:1032D000100410041004080807F0000010041FFC7C
:1032E00010841080108010800F00000007F0081874
:1032F00010241024101C080A07F2000010041FFC00
:103300001104110011C011300E0C000400000E1C3D
:1033100011041084108410441C38000018001000A0
:1033200010041FFC100410001800000010001FF80B
:1033300010040004000410041FF8100010001E0008
:1033400011E0001C007013801C0010001FC0103C16
:1033500000E01F0000E0103C1FC000001004180C2B
:10336000163401C001C01634180C100410001C00E3
:10337000130400FC13041C00100000000804101CBF
:103380001064108413041C041018000000000000D6
:1033900000007FFE400240024002000000003000BA
:1033A0000C0003800060001C0003000000004002CD
:1033B000400240027FFE000000000000000000000C
:1033C00020004000400040002000000000010001FB
:1033D00000010001000100010001000100004000A7
:1033E00040002000000000000000000000000098E5
:1033F000012401440144014400FC000410001FFCAE
:1034000000880104010400880070000000000070C2
:10341000008801040104010400880000000000701D
:1034200000880104010411081FFC0004000000F8DA
:10343000014401440144014400C8000000000104AB
:1034400001040FFC1104110411001800000000D643
:1034500001290129012901C90106000010041FFCEE
:10346000008401000100010400FC000400000104CC
:10347000190419FC0004000400000000000000030F
:1034800000010101190119FE0000000010041FFCD9
:103490000024004001B4010C0104000000001004ED
:1034A00010041FFC0004000400000000010401FCE3
:1034B0000104010001FC0104010000FC010401FC05
:1034C000008401000100010400FC0004000000F879
:1034D000010401040104010400F80000010101FFDE
:1034E00000850104010400880070000000000070E5
:1034F000008801040104010501FF00010104010429
:1035000001FC00840104010001800000000000CCE7
:10351000012401240124012401980000000001007D
:10352000010007F80104010400000000010001F897
:10353000000400040004010801FC000401000180F3
:103540000170000C001001600180010001F0010C0D
:10355000003001C00030010C01F001000000010446
:10356000018C00740170018C0104000001010181D3
:103570000171000E0018016001800100000001844B
:10358000010C013401440184010C00000000000022
:103590000000000001003EFC40024002000000006C
:1035A00000000000FFFF00000000000000004002DB
:1035B00040023EFC0100000000000000000060002E
:1035C000800080004000400020002000000000003B
:1035D00000000000000000000000000000000000EB
:1035E00000000000000000000000000000000000DB
:1035F0000000000000000000000000000000000FBC
:1036000080380FFE380F80380000000000000000F6
:1036100000000000000000000000010000060000A3
:103620000C00003800003100000600000C000038DB
:103630000000300000000000000000006180006712
:10364000F807F9800061800061800061800061807E
:103650000067F807F98000618000000000000000AA
:10366000000001C0E003E0F00630080418081FFF66
:10367000FE040E080787F00381E000000000000050
:1036800001F000060C00040408060C7001F9C000EB
:103690000E00003BE000EC18070808040C180003BB
:1036A000E00000000001E00007F003F818041C0827
:1036B00004170807E1D003C0E00023B0003C080075
:1036C0002008000010000000000000010000310090
:1036D000003200001C00000000000000000000009C
:1036E00000000000000000000000000000000000DA
:1036F0000000000000000000000000007F0001FF4B
:10370000C00780F00C001810000420000200000028
:103710000000002000021000040C00180780F001D7
:10372000FFC0007F0000000000000000000000005B
:10373000000000000000000042000066000066007B
:10374000003C0000180003FFC0001800003C00000F
:10375000660000660000420000000000080000084B
:103760000000080000080000080001FFC000080079
:103770000008000008000008000008000000000029
:10378000000100003100003200001C0000000000B9
:103790000000000000000000000000000000000029
:1037A00000000000080000080000080000080000F9
:1037B00008000008000008000008000008000008D9
:1037C0000000000000000000000000003800003889
:1037D00000003800000000000000000000000000B1
:1037E00000000000000000000000000000060000D3
:1037F0001C000070000180000E0000380000C000B6
:103800000700001C00003000000000000000000065
:103810007F8001FFE00380700600180400080400A8
:103820000806001803807001FFE0007F80000000A0
:10383000000000000000010008010008010008036A
:10384000FFF807FFF800000800000800000800006B
:103850000000000000000001C03802C058040098B9
:10386000040118040218040418061C1803F81801AF
:10387000E0F800000000000000000001C0E003C00C
:10388000F004000804080804080806180803F418DF
:1038900001E7F00001E0000000000000000000006F
:1038A0000300000D00001100006100008108030109
:1038B0000807FFF80FFFF8000108000108000000EA
:1038C0000000000000E007FCD0060808061008060B
:1038D0001008061008061838060FF00607C000008A
:1038E00000000000000000003F8001FFE003843082
:1038F0000208180410080410080410080718100320
:103900000FF00007C000000000000000000003C02E
:10391000000700000600000600F80607F806180079
:1039200006E00007000006000000000000000001A3
:10393000E1E003F7F0063410041808041808040C3A
:1039400008040C0806161803F3F001C1E00000009B
:1039500000000000F80003FC3003063804020804ED
:1039600002080402080404100308F001FFC0007FED
:103970000000000000000000000000000000000047
:10398000000000007038007038007038000000003F
:103990000000000000000000000000000000000027
:1039A0000000000000000000301A00301C00000081
:1039B0000000000000000000000000000000000007
:1039C00000000008000014000022000041000080F8
:1039D00080010040020020040010080008000000E0
:1039E0000000000021000021000021000021000053
:1039F0002100002100002100002100002100002101
:103A00000000000000000000000008000804001092
:103A100002002001004000808000410000220000E0
:103A2000140000080000000000000003C00004C0F3
:103A300000040000080038080F3808083808100093
:103A40000C300007E00003C0000000000000000090
:103A50003F8000FFE0038070020F1006708804C0F2
:103A600088048308047F8802C09003012000FE4080
:103A70000000080000180001F8003E0801C200071D
:103A8000020007E20000FE00001FC80001F800006D
:103A90003800000804000807FFF807FFF8040808CA
:103AA00004080804080804080806180803F41801A4
:103AB000E7F00001E0000000000000003F8001FF8F
:103AC000E0038070020018040008040008040008E5
:103AD0000400100600200780C00000000400080752
:103AE000FFF807FFF80400080400080400080400B9
:103AF0001802001003807001FFE0007F80000000CA
:103B000004000807FFF807FFF80408080408080481
:103B10000808040808043E0804000806001801000C
:103B20006000000004000807FFF807FFF804080819
:103B3000040800040800040800043E000600000613
:103B40000000018000000000000000003F8001FF35
:103B5000E00380700600180400080402080402084C
:103B60000203F00783F000020000020004000807CF
:103B7000FFF807FFF8040808000800000800000824
:103B80000000080004080807FFF807FFF804000811
:103B900000000000000004000804000804000807FA
:103BA000FFF807FFF80400080400080400080000FC
:103BB00000000000000000000006000007000001F7
:103BC00004000104000104000307FFFE07FFFC04DA
:103BD000000004000004000004000807FFF807FFCD
:103BE000F8040C08001800003E0004C7800503C854
:103BF0000600F80400380400180000080400080754
:103C0000FFF807FFF80400080000080000080000A3
:103C10000800000800000800001800006000000014
:103C200004000807FFF807800807FC00007FC000B9
:103C300003F80007C000780007800807FFF807FFB7
:103C4000F804000804000807FFF807000803C00094
:103C500000E000003800001E000007000001C00462
:103C600000F007FFF8040000000000007F8001FF63
:103C7000E00380700600180400080400080600181D
:103C800003003001FFE0007F80000000040008070F
:103C9000FFF807FFF8040408040400040400040407
:103CA00000040400060C0003F80001F0000000000E
:103CB000000000007F8001FFE003807006008804A0
:103CC00000880400C806003C03003E01FFE6007FB8
:103CD0008400000004000807FFF807FFF804080844
:103CE000040800040C00040F00040BC00610F003CD
:103CF000F03801E00800000800000001E0F803F0DF
:103D000030063010041808041808040C08040C08C5
:103D10000206180207F00781E0000000018000069B
:103D2000000004000004000004000807FFF807FF7B
:103D3000F8040008040000040000060000018000F0
:103D400004000007FFE007FFF0040018000008006F
:103D5000000800000800000800000804001007FF29
:103D6000E004000004000006000007E00007FE0079
:103D7000041FE00001F80000380001E0043E0007E5
:103D8000C00006000004000004000007E00007FF78
:103D9000C0041FF80007C007F80007FF80043FF8C1
:103DA0000007C004F8000700000400000000000441
:103DB000000806001807C07805F1C8003E00001F83
:103DC000800463E80780F80600180400080000007B
:103DD00004000006000007800007E008047C0800DB
:103DE0001FF80007F800180804E0080700000600A4
:103DF000000400000000000100080600380400F87C
:103E00000403E8040F08047C0805F00807C008074D
:103E10000018040060000000000000000000000026
:103E2000000000000000003FFFFE20000220000212
:103E3000200002200002200002000000000000001C
:103E4000000008000007000000C000003800000665
:103E5000000001C000003000000E00000100000062
:103E600000000000000020000220000220000220CC
:103E700000022000023FFFFE0000000000000000E2
:103E8000000000000000000000000000000800002A
:103E9000100000300000200000300000100000087A
:103EA0000000000000000000000001000001000010
:103EB00001000001000001000001000001000001FC
:103EC00000000100000100000100000100000000EE
:103ED0000000000000200000200000100000100082
:103EE00000000000000000000000000000000000D2
:103EF0000000000000F00019F8001B180022080064
:103F00002608002408002410003FF8001FF80000D5
:103F10000800001800000004000007FFF80FFFF081
:103F200000181800100800200800200800301800B1
:103F30001FF0000FC00000000000000007C0001FBD
:103F4000F0001830002008002008002008003C087D
:103F5000001C1000006000000000000000000000D5
:103F600007C0001FF00038180020080020080020BB
:103F70000804101007FFF80FFFF000001000000009
:103F80000000000000000007C0001FF00012300019
:103F90002218002208002208003208001E10000E1D
:103FA0002000000000000000200000200800200881
:103FB00001FFF803FFF80620080420080420080782
:103FC000200003000000000000000000000E000EB2
:103FD0006E001FF30031B10020B10020B10031911B
:103FE000001F13002E1E00200E00300000000004F1
:103FF000000807FFF80FFFF800100800200000205D
:1040000000002008003FF8001FF800000800000032
:104010000000000000000020080020080020080622
:104020003FF8063FF8000008000008000008000004
:10403000000000000000000000000000030000037A
:10404000002001002001002003063FFE063FFC0087
:10405000000000000000000000000004000807FF4E
:10406000F80FFFF8000188000300002FC00038F8A7
:1040700000203800200800000800000000000000B8
:10408000000004000804000804000807FFF80FFF00
:10409000F800000800000800000800000000000010
:1040A000002008003FF8003FF80010080020000042
:1040B0003FF8003FF8001008002000003FF8003FE4
:1040C000F8000008000000002008003FF8003FF85A
:1040D000001008001000002000002008003FF80039
:1040E0001FF80000080000000000000007C0000FDB
:1040F000F0001830003008002008002008003008C8
:10410000001830000FF00007C000000000000000A1
:104110002001003FFF003FFF001011002009002098
:1041200008002008003038001FF0000FC000000019
:104130000000000007C0001FF00038180020080031
:104140002008002009001011001FFF003FFF0000A1
:1041500001000000002008002008002008003FF8AF
:10416000003FF800080800100800200800200000A8
:104170003000003000000000000000000000000CD3
:1041800078001E1800330800230800210800218849
:104190000021980030F000386000000000000000AE
:1041A000200000200000200000FFF003FFF80020A6
:1041B0000800200800200800003000000000000077
:1041C000000000002000003FF0007FF80000180011
:1041D0000008000008002010003FF8007FF00000F9
:1041E00010000000000000002000003000003C0033
:1041F000003F800023F00000780000700023800062
:104200003C00003000002000002000003C00003F87
:10421000E00023F80000E0002700003E00003FE03F
:104220000021F80001E0003E000020000000000036
:104230002008002008003838003E6800278000036E
:10424000C8002CF8003838002018002008000000B2
:10425000000000002000003003003C01003F83000C
:1042600023EC000070002380003C000020000020B0
:1042700000000000000000000000003808002038A6
:104280000020F80023E8002F88003E0800380800CE
:104290002018000070000000000000000000000076
:1042A000000000000000000008000014001FF7FCE0
:1042B00030000620000200000000000000000000A6
:1042C0000000000000000000000000000000FFFFF0
:1042D000FF000000000000000000000000000000DF
:1042E0000000000000002000023000061FF7FC0064
:1042F00014000008000000000000000000000000A2
:1043000000000000000000180000600000400000F5
:10431000400000200000100000080000040000041D
:1043200000000C0000100000000000000000000071
:10433000000000000000000000000000000000007D
:10434000000000000000000000000000000000006D
:10435000000000000000000000000000000000005D
:10436000000000000000000000000000000000004D
:10437000000000000000000000000000000000003D
:10438000000000000000000000000000000000002D
:10439000000000000000000000000000000000001D
:1043A000000000000000000000000000000000000D
:1043B00000000000000000000000000000000000FD
:1043C00007F000C007FFE1E007F001E0000000C0D7
:1043D00000000000000000000000000000000000DD
:1043E00000000000000000000000000000000000CD
:1043F00000000000000000000000000000000000BD
:1044000000000000000000000000000000000000AC
:10441000000000000000000000000000000000009C
:10442000000000000000000000000000000000008C
:104430000020000001C00000078000001F000000F5
:104440001E0000001C20000001C0000007800000CA
:104450001F0000001E0000001C0000000000000003
:10446000000000000000000000000000000000004C
:10447000000000000000000000000000000000003C
:10448000000000000000000000000000000000002C
:10449000000000000000000000000000000000001C
:1044A00000000000000000000000000000180C00E8
:1044B00000180C0000180FE0001FFC0003F80C00AF
:1044C00000180C0000180C0000180C0000180C005C
:1044D00000180FE0001FFC0003F80C0000180C008F
:1044E00000180C00000000000000000000000000A8
:1044F00000000000000000000000000000000000BC
:1045000000000000000000000000000000000000AB
:10451000000000000000000000000000000000009B
:10452000000000000000000000000000000000008B
:1045300000000780007807C000FC0640010E002044
:1045400003070020020380200FFFFFFC0201C020B0
:104550000200E0600130704001F03F8000F01F0079
:10456000000000000000000000000000000000004B
:10457000000000000000000000000000000000003B
:10458000000000000000000000000000000000002B
:10459000000000000000000000000000000000001B
:1045A000000000000000000000FE000001FF00000D
:1045B0000301800002008060030181C001FF070049
:1045C00000FE18000000E0000003BF00000CFFC068
:1045D0000071806001C10020030180600000FFC005
:1045E00000003F000000000000000000000000008C
:1045F00000000000000000000000000000000000BB
:1046000000000000000000000000000000000000AA
:10461000000000000000000000000000000000009A
:10462000000000000000000000001F0000007FC02C
:1046300000FCC0C001FF80600303E020020278207C
:1046400002061E2003FC074001F00380000103C0A6
:1046500000011C600001E02000010020000100407A
:1046600000000180000000000000000000000000C9
:10467000000000000000000000000000000000003A
:10468000000000000000000000000000000000002A
:10469000000000000000000000000000000000001A
:1046A00000000000000000000000000000200000EA
:1046B0001C6000001C4000001F8000000F00000074
:1046C00000000000000000000000000000000000EA
:1046D00000000000000000000000000000000000DA
:1046E00000000000000000000000000000000000CA
:1046F00000000000000000000000000000000000BA
:1047000000000000000000000000000000000000A9
:104710000000000000000000000000000000000099
:104720000000000000000000000000000000000089
:104730000000000000000000000000000000000079
:10474000000000000007F800003FFF00007807C0ED
:1047500001C000E00300003004000008080000046D
:104760001000000200000000000000000000000037
:104770000000000000000000000000000000000039
:104780000000000000000000000000000000000029
:104790000000000000000000000000000000000019
:1047A00000000000000000000000000010000002F7
:1047B00008000004040000080300003001C000E00D
:1047C000007807C0003FFF000007F800000000006D
:1047D00000000000000000000000000000000000D9
:1047E00000000000000000000000000000000000C9
:1047F00000000000000000000000000000000000B9
:1048000000000000000000000000000000000000A8
:104810000000000000000000000000000000000098
:104820000000000000000000000000000000000088
:10483000000C1800000E3800000E38000006300092
:10484000000360000061438000FFFF8000614300BF
:104850000003600000063000000E3800000E380033
:10486000000C180000000000000000000000000024
:104870000000000000000000000000000000000038
:104880000000000000000000000000000000000028
:104890000000000000000000000000000000000018
:1048A0000000000000000000000000000000000008
:1048B00000008000000080000000800000008000F8
:1048C0000000800000008000007FFF0000008000EA
:1048D00000008000000080000000800000008000D8
:1048E0000000800000000000000000000000000048
:1048F00000000000000000000000000000000000B8
:1049000000000000000000000000000000000000A7
:104910000000000000000000000000000000000097
:104920000000000000000000000000000000000186
:10493000000000E3000000E2000000FC000000783E
:104940000000000000000000000000000000000067
:104950000000000000000000000000000000000057
:104960000000000000000000000000000000000047
:104970000000000000000000000000000000000037
:104980000000000000000000000000000000000027
:104990000000000000000000000000000000000017
:1049A0000000000000000000000000000000800087
:1049B00000008000000080000000800000008000F7
:1049C00000008000000080000000800000008000E7
:1049D00000008000000080000000800000008000D7
:1049E0000000800000000000000000000000000047
:1049F00000000000000000000000000000000000B7
:104A000000000000000000000000000000000000A6
:104A10000000000000000000000000000000000096
:104A20000000000000000000000000000000000086
:104A3000000000C0000001E0000001E0000000C034
:104A40000000000000000000000000000000000066
:104A50000000000000000000000000000000000056
:104A60000000000000000000000000000000000046
:104A70000000000000000000000000000000000036
:104A80000000000000000000000000000000000026
:104A90000000000000000000000000000000000016
:104AA0000000000000000000000000000000000CFA
:104AB00000000038000000E00000038000000E004D
:104AC000000038000000E00000038000000E00003D
:104AD0000038000000E00000038000000E0000002D
:104AE00018000000000000000000000000000000AE
:104AF00000000000000000000000000000000000B6
:104B000000000000000000000000000000000000A5
:104B10000000000000000000000000000000000095
:104B20000000000000000000000000000000000085
:104B3000000FF800007FFF0000F00780018000C038
:104B4000030000600200002002000020020000209C
:104B500003000060018000C000E00380007FFF00D0
:104B6000000FF8000000000000000000000000003E
:104B70000000000000000000000000000000000035
:104B80000000000000000000000000000000000025
:104B90000000000000000000000000000000000015
:104BA0000000000000000000000000000000000005
:104BB0000000000000800020008000200080002015
:104BC0000080006001FFFFE003FFFFE000000060E5
:104BD0000000002000000020000000200000000075
:104BE00000000000000000000000000000000000C5
:104BF00000000000000000000000000000000000B5
:104C000000000000000000000000000000000000A4
:104C10000000000000000000000000000000000094
:104C20000000000000000000000000000000000084
:104C3000007800E00098016001000260020004605A
:104C40000200086002001060020020600200406064
:104C5000030080600183006001FE00E0007C0780AB
:104C60000000000000000000000000000000000044
:104C70000000000000000000000000000000000034
:104C80000000000000000000000000000000000024
:104C90000000000000000000000000000000000014
:104CA0000000000000000000000000000000000004
:104CB00000F0078001F007C0010000400200002062
:104CC00002010020020100200201002003038020D5
:104CD0000186804001FCC0C000787F8000001E007B
:104CE00000000000000000000000000000000000C4
:104CF00000000000000000000000000000000000B4
:104D000000000000000000000000000000000000A3
:104D10000000000000000000000000000000000093
:104D2000000000000000000000000000000008007B
:104D3000000038000000480000018800000608005C
:104D4000000C0810003008100040081001FFFFF0B0
:104D500003FFFFF003FFFFF0000008100000081041
:104D6000000008100000000000000000000000002B
:104D70000000000000000000000000000000000033
:104D80000000000000000000000000000000000023
:104D90000000000000000000000000000000000013
:104DA0000000000000000000000000000000000003
:104DB00000000780001F864003E10020030200205E
:104DC0000304002003040020030400200304002047
:104DD00003060040030301C00301FF8003007E00BF
:104DE00000000000000000000000000000000000C3
:104DF00000000000000000000000000000000000B3
:104E000000000000000000000000000000000000A2
:104E10000000000000000000000000000000000092
:104E20000000000000000000000000000000000082
:104E30000007FC00003FFF000070C380008180C0BD
:104E40000101006003020020020200200202002093
:104E5000020200200203004001C180C000C0FF80A8
:104E600000007E00000000000000000000000000C4
:104E70000000000000000000000000000000000032
:104E80000000000000000000000000000000000022
:104E90000000000000000000000000000000000012
:104EA0000000000000000000000000000000000002
:104EB00000F0000003C000000380000003000000B9
:104EC000030007E003003FE00301C0000306000009
:104ED00003180000036000000380000003000000CE
:104EE00000000000000000000000000000000000C2
:104EF00000000000000000000000000000000000B2
:104F000000000000000000000000000000000000A1
:104F10000000000000000000000000000000000091
:104F200000000000000000000000000000001F0062
:104F300000783F8000FC60C0018EC04003078020E5
:104F40000203002002018020020180200201C02013
:104F50000301E040018670C000FC3F8000781F0024
:104F60000000000000000000000000000000000041
:104F70000000000000000000000000000000000031
:104F80000000000000000000000000000000000021
:104F90000000000000000000000000000000000011
:104FA000000000000000000000000000003F0000C2
:104FB00000FF81C001C0C1C00100602002002020AC
:104FC000020020200200202002002060020040C0D9
:104FD0000100C18000C18F00007FFE00001FF000B3
:104FE00000000000000000000000000000000000C1
:104FF00000000000000000000000000000000000B1
:1050000000000000000000000000000000000000A0
:105010000000000000000000000000000000000090
:105020000000000000000000000000000000000080
:105030000000000000000000000000000000000070
:10504000000300C0000781E0000781E0000300C00A
:105050000000000000000000000000000000000050
:105060000000000000000000000000000000000040
:105070000000000000000000000000000000000030
:105080000000000000000000000000000000000020
:105090000000000000000000000000000000000010
:1050A0000000000000000000000000000000000000
:1050B00000000000000000000000000000000000F0
:1050C00000060066000600780000000000000000F6
:1050D00000000000000000000000000000000000D0
:1050E00000000000000000000000000000000000C0
:1050F00000000000000000000000000000000000B0
:10510000000000000000000000000000000000009F
:10511000000000000000000000000000000000008F
:10512000000000000000000000000000000000007F
:10513000000080000001C000000360000006300095
:10514000000C180000180C0000300600006003007E
:1051500000C0018001000040020000200400001097
:10516000000000000000000000000000000000003F
:10517000000000000000000000000000000000002F
:10518000000000000000000000000000000000001F
:10519000000000000000000000000000000000000F
:1051A00000000000000000000000000000041000EB
:1051B000000410000004100000041000000410009F
:1051C000000410000004100000041000000410008F
:1051D000000410000004100000041000000410007F
:1051E00000041000000000000000000000000000AB
:1051F00000000000000000000000000000000000AF
:10520000000000000000000000000000000000009E
:10521000000000000000000000000000000000008E
:10522000000000000000000000000000000000007E
:1052300004000010020000200100004000C00180B6
:10524000006003000030060000180C00000C18007D
:1052500000063000000360000001C0000000800074
:10526000000000000000000000000000000000003E
:10527000000000000000000000000000000000002E
:10528000000000000000000000000000000000001E
:10529000000000000000000000000000000000000E
:1052A00000000000000000000000000000000000FE
:1052B0000078000001F80000023800000200000041
:1052C000040000C0040079E0040081E0040100C093
:1052D00004030000020200000306000001FC0000BD
:1052E00000F80000000000000000000000000000C6
:1052F00000000000000000000000000000000000AE
:10530000000000000000000000000000000000009D
:10531000000000000000000000000000000000008D
:10532000000000000000000000000000000FF80076
:10533000003FFE000070078000C000C00101F8407F
:105340000307FC20021E0420023008200220302027
:10535000023FFC20013F044001800CC000E031808E
:10536000001FC2000000000000000000000000005C
:10537000000000000000000000000000000000002D
:10538000000000000000000000000000000000001D
:10539000000000000000000000000000000000000D
:1053A000000000000000000000000020000000607D
:1053B000000003E000003E200003E020003E20004B
:1053C00003E020000380200007FC2000003FE000F5
:1053D0000003FE2000003FE0000001E0000000208C
:1053E000000000200000000000000000000000009D
:1053F00000000000000000000000000000000000AD
:10540000000000000000000000000000000000009C
:10541000000000000000000000000000000000008C
:10542000000000000000000000000000020000205A
:105430000200002003FFFFE003FFFFE00201002065
:1054400002010020020100200201002002010020D0
:10545000030300200186806001FCC0C000F87F804B
:1054600000001F000000000000000000000000001D
:10547000000000000000000000000000000000002C
:10548000000000000000000000000000000000001C
:10549000000000000000000000000000000000000C
:1054A0000000000000000000000000000007F800FD
:1054B000003FFF000070078000C000C001000040F6
:1054C0000300002002000020020000200200002053
:1054D0000200002001000040018000C003C00180E4
:1054E0000030060000000000000000000000000086
:1054F00000000000000000000000000000000000AC
:10550000000000000000000000000000000000009B
:10551000000000000000000000000000000000008B
:105520000000000000000000000000000200002059
:105530000200002003FFFFE003FFFFE00200002065
:105540000200002002000020020000200300006092
:1055500001000040018000C000F00780007FFE00D5
:10556000000FF80000000000000000000000000034
:10557000000000000000000000000000000000002B
:10558000000000000000000000000000000000001B
:10559000000000000000000000000000000000000B
:1055A00000000000000000000000000002000020D9
:1055B0000200002003FFFFE003FFFFE002010020E4
:1055C000020100200201002002010020020100204F
:1055D00002038020020FE0200300006003C000E00F
:1055E0000060030000000000000000000000000058
:1055F00000000000000000000000000000000000AB
:10560000000000000000000000000000000000009A
:10561000000000000000000000000000000000008A
:105620000000000000000000000000000200002058
:105630000200002003FFFFE003FFFFE00201002063
:10564000020100200201000002010000020100002E
:105650000201000002038000030FE00003000000CD
:1056600003C0000000600000000000000000000017
:10567000000000000000000000000000000000002A
:10568000000000000000000000000000000000001A
:10569000000000000000000000000000000000000A
:1056A0000000000000000000000000000007F800FB
:1056B000003FFE000070078001C001C001000040F3
:1056C0000300002002000020020000200200002051
:1056D000010020200100204003C03F8000303F80B7
:1056E000000020000000200000000000000000007A
:1056F00000000000000000000000000000000000AA
:105700000000000000000000000000000000000099
:105710000000000000000000000000000000000089
:105720000000000000000000020000200200002035
:1057300003FFFFE003FFFFE0020080200200802063
:105740000000800000008000000080000200802037
:105750000200802003FFFFE003FFFFE002000020C3
:105760000200002000000000000000000000000017
:105770000000000000000000000000000000000029
:105780000000000000000000000000000000000019
:105790000000000000000000000000000000000009
:1057A00000000000000000000000000000000000F9
:1057B0000000000002000020020000200200002083
:1057C0000200002003FFFFE003FFFFE002000020D3
:1057D0000200002002000020020000200000000063
:1057E00000000000000000000000000000000000B9
:1057F00000000000000000000000000000000000A9
:105800000000000000000000000000000000000098
:105810000000000000000000000000000000000088
:105820000000000000000000000000000000000E6A
:105830000000000F0000000F000000010200000146
:1058400002000001020000030200000603FFFFFC4B
:1058500003FFFFF802000000020000000200000049
:105860000200000000000000000000000000000036
:105870000000000000000000000000000000000028
:105880000000000000000000000000000000000018
:105890000000000000000000000000000000000008
:1058A00000000000000000000000000002000020D6
:1058B0000200002003FFFFE003FFFFE00200C02022
:1058C0000201002000078000000FE0000030F80017
:1058D00002603E2003800F20030003E0020000E08E
:1058E0000200002000000020000000000000000076
:1058F00000000000000000000000000000000000A8
:105900000000000000000000000000000000000097
:105910000000000000000000000000000000000087
:105920000000000000000000000000000200002055
:105930000200002003FFFFE003FFFFE00200002061
:1059400002000020000000200000002000000020D5
:10595000000000200000002000000060000000E0C7
:105960000000030000000000000000000000000034
:105970000000000000000000000000000000000027
:105980000000000000000000000000000000000017
:105990000000000000000000000000000000000007
:1059A00000000000000000000200002002000020B3
:1059B00003FFFFE003E0002003FF0020001FF000D2
:1059C0000001FF8000000FE000001E000003E00067
:1059D000003E002003E0002003FFFFE003FFFFE0A4
:1059E0000200002002000020000000000000000073
:1059F00000000000000000000000000000000000A7
:105A00000000000000000000000000000000000096
:105A10000000000000000000000000000000000086
:105A20000000000000000000020000200200002032
:105A300003FFFFE00380002003F0002000FC0000D3
:105A4000001F00000007C0000001F00000007C0003
:105A500002001F80020007E003FFFFE002000000D9
:105A60000200000000000000000000000000000034
:105A70000000000000000000000000000000000026
:105A80000000000000000000000000000000000016
:105A90000000000000000000000000000000000006
:105AA000000000000000000000000000000FF800EF
:105AB000003FFE0000F00780018000C001000040B0
:105AC000020000200200002002000020020000204E
:105AD00001000040018000C000F00380003FFE0094
